{
  "contractName": "anchoringSC",
  "abi": [
    {
      "inputs": [],
      "payable": false,
      "stateMutability": "nonpayable",
      "type": "constructor"
    },
    {
      "anonymous": false,
      "inputs": [
        {
          "indexed": true,
          "internalType": "uint256",
          "name": "statusCode",
          "type": "uint256"
        }
      ],
      "name": "InvokeStatus",
      "type": "event"
    },
    {
      "constant": false,
      "inputs": [
        {
          "internalType": "string",
          "name": "key",
          "type": "string"
        },
        {
          "internalType": "string",
          "name": "value",
          "type": "string"
        }
      ],
      "name": "addStuff",
      "outputs": [],
      "payable": false,
      "stateMutability": "nonpayable",
      "type": "function"
    },
    {
      "constant": true,
      "inputs": [
        {
          "internalType": "string",
          "name": "key",
          "type": "string"
        }
      ],
      "name": "getStuff",
      "outputs": [
        {
          "internalType": "string",
          "name": "",
          "type": "string"
        }
      ],
      "payable": false,
      "stateMutability": "view",
      "type": "function"
    },
    {
      "constant": false,
      "inputs": [
        {
          "internalType": "string",
          "name": "anchorID",
          "type": "string"
        },
        {
          "internalType": "bytes32",
          "name": "controlString",
          "type": "bytes32"
        },
        {
          "internalType": "string",
          "name": "newHashLinkSSI",
          "type": "string"
        },
        {
          "internalType": "string",
          "name": "ZKPValue",
          "type": "string"
        },
        {
          "internalType": "string",
          "name": "lastHashLinkSSI",
          "type": "string"
        },
        {
          "internalType": "bytes",
          "name": "signature",
          "type": "bytes"
        },
        {
          "internalType": "bytes",
          "name": "publicKey",
          "type": "bytes"
        }
      ],
      "name": "addAnchor",
      "outputs": [],
      "payable": false,
      "stateMutability": "nonpayable",
      "type": "function"
    },
    {
      "constant": true,
      "inputs": [
        {
          "internalType": "string",
          "name": "anchor",
          "type": "string"
        }
      ],
      "name": "getAnchorVersions",
      "outputs": [
        {
          "components": [
            {
              "internalType": "string",
              "name": "newHashLinkSSI",
              "type": "string"
            },
            {
              "internalType": "string",
              "name": "lastHashLinkSSI",
              "type": "string"
            },
            {
              "internalType": "string",
              "name": "ZKPValue",
              "type": "string"
            }
          ],
          "internalType": "struct anchoringSC.AnchorValue[]",
          "name": "",
          "type": "tuple[]"
        }
      ],
      "payable": false,
      "stateMutability": "view",
      "type": "function"
    },
    {
      "constant": true,
      "inputs": [],
      "name": "check",
      "outputs": [
        {
          "internalType": "int256",
          "name": "",
          "type": "int256"
        }
      ],
      "payable": false,
      "stateMutability": "view",
      "type": "function"
    }
  ],
  "bytecode": "0x608060405234801561001057600080fd5b50611a4e806100206000396000f3fe608060405234801561001057600080fd5b50600436106100575760003560e01c806301c44e4d1461005c5780634625968314610078578063919840ad146100a8578063ab46b024146100c6578063bcbbbdfd146100f6575b600080fd5b6100766004803603610071919081019061129f565b610112565b005b610092600480360361008d919081019061125e565b610306565b60405161009f9190611828565b60405180910390f35b6100b06103c6565b6040516100bd919061180d565b60405180910390f35b6100e060048036036100db919081019061125e565b6103cf565b6040516100ed91906117a6565b60405180910390f35b610110600480360361010b91908101906113cd565b610755565b005b61011b8761078c565b156101535760657f4946ccdaf82fd5a93c40e96bfc3e4486f2b1d95879aecd4b186cd3e2adb3f4b960405160405180910390a26102fd565b60006101608885886107c1565b9050600081141561019f5760647f4946ccdaf82fd5a93c40e96bfc3e4486f2b1d95879aecd4b186cd3e2adb3f4b960405160405180910390a2506102fd565b7fffffffffffffffffffffffffffffffffffffffffffffffffffffffffffffffff811415610239576101d0876109f9565b15610215576101e188878787610a3a565b60c97f4946ccdaf82fd5a93c40e96bfc3e4486f2b1d95879aecd4b186cd3e2adb3f4b960405160405180910390a2506102fd565b866002896040516102269190611720565b9081526020016040518091039020819055505b6102438289610b6b565b61027b5760667f4946ccdaf82fd5a93c40e96bfc3e4486f2b1d95879aecd4b186cd3e2adb3f4b960405160405180910390a2506102fd565b610289888787878787610be5565b6102c15760677f4946ccdaf82fd5a93c40e96bfc3e4486f2b1d95879aecd4b186cd3e2adb3f4b960405160405180910390a2506102fd565b6102cd88878787610c36565b60c87f4946ccdaf82fd5a93c40e96bfc3e4486f2b1d95879aecd4b186cd3e2adb3f4b960405160405180910390a2505b50505050505050565b60606004826040516103189190611720565b90815260200160405180910390208054600181600116156101000203166002900480601f0160208091040260200160405190810160405280929190818152602001828054600181600116156101000203166002900480156103ba5780601f1061038f576101008083540402835291602001916103ba565b820191906000526020600020905b81548152906001019060200180831161039d57829003601f168201915b50505050509050919050565b60006005905090565b606060006001836040516103e39190611720565b908152602001604051809103902080549050141561043e57600060405190808252806020026020018201604052801561043657816020015b610423610ffc565b81526020019060019003908161041b5790505b509050610750565b60606001836040516104509190611720565b90815260200160405180910390208054806020026020016040519081016040528092919081815260200182805480156104a857602002820191906000526020600020905b815481526020019060010190808311610494575b50505050509050606081516040519080825280602002602001820160405280156104ec57816020015b6104d9610ffc565b8152602001906001900390816104d15790505b50905060008090505b825181101561074957610725600084838151811061050f57fe5b60200260200101518154811061052157fe5b9060005260206000209060030201604051806060016040529081600082018054600181600116156101000203166002900480601f0160208091040260200160405190810160405280929190818152602001828054600181600116156101000203166002900480156105d35780601f106105a8576101008083540402835291602001916105d3565b820191906000526020600020905b8154815290600101906020018083116105b657829003601f168201915b50505050508152602001600182018054600181600116156101000203166002900480601f0160208091040260200160405190810160405280929190818152602001828054600181600116156101000203166002900480156106755780601f1061064a57610100808354040283529160200191610675565b820191906000526020600020905b81548152906001019060200180831161065857829003601f168201915b50505050508152602001600282018054600181600116156101000203166002900480601f0160208091040260200160405190810160405280929190818152602001828054600181600116156101000203166002900480156107175780601f106106ec57610100808354040283529160200191610717565b820191906000526020600020905b8154815290600101906020018083116106fa57829003601f168201915b505050505081525050610d30565b82828151811061073157fe5b602002602001018190525080806001019150506104f5565b5080925050505b919050565b806004836040516107669190611720565b9081526020016040518091039020908051906020019061078792919061101d565b505050565b600060038260405161079e9190611720565b908152602001604051809103902060009054906101000a900460ff169050919050565b6000806001856040516107d49190611720565b9081526020016040518091039020805490501415610814577fffffffffffffffffffffffffffffffffffffffffffffffffffffffffffffffff90506109f2565b60006001856040516108269190611720565b9081526020016040518091039020600180876040516108459190611720565b908152602001604051809103902080549050038154811061086257fe5b9060005260206000200154905060028460405161087f91906116f2565b602060405180830381855afa15801561089c573d6000803e3d6000fd5b5050506040513d601f19601f820116820180604052506108bf9190810190611235565b6002600083815481106108ce57fe5b90600052602060002090600302016000016040516108ec9190611709565b602060405180830381855afa158015610909573d6000803e3d6000fd5b5050506040513d601f19601f8201168201806040525061092c9190810190611235565b14156109ec5760028460405161094291906116f2565b602060405180830381855afa15801561095f573d6000803e3d6000fd5b5050506040513d601f19601f820116820180604052506109829190810190611235565b60028460405161099291906116f2565b602060405180830381855afa1580156109af573d6000803e3d6000fd5b5050506040513d601f19601f820116820180604052506109d29190810190611235565b14156109e25760009150506109f2565b60019150506109f2565b60009150505b9392505050565b60008060f81b82600060208110610a0c57fe5b1a60f81b7effffffffffffffffffffffffffffffffffffffffffffffffffffffffffffff1916149050919050565b610a4261109d565b610a4d848385610d56565b9050600081908060018154018082558091505090600182039060005260206000209060030201600090919290919091506000820151816000019080519060200190610a999291906110be565b506020820151816001019080519060200190610ab69291906110be565b506040820151816002019080519060200190610ad39291906110be565b5050505060006001600080549050039050600186604051610af49190611720565b90815260200160405180910390208190806001815401808255809150509060018203906000526020600020016000909192909190915055506001600387604051610b3e9190611720565b908152602001604051809103902060006101000a81548160ff021916908315150217905550505050505050565b6000600282604051610b7d9190611720565b908152602001604051809103902054600284604051610b9c91906116f2565b602060405180830381855afa158015610bb9573d6000803e3d6000fd5b5050506040513d601f19601f82011682018060405250610bdc9190810190611235565b14905092915050565b6000610bf48787878787610d82565b73ffffffffffffffffffffffffffffffffffffffff16610c1383610da4565b73ffffffffffffffffffffffffffffffffffffffff161490509695505050505050565b610c3e61109d565b610c49848385610d56565b9050600081908060018154018082558091505090600182039060005260206000209060030201600090919290919091506000820151816000019080519060200190610c959291906110be565b506020820151816001019080519060200190610cb29291906110be565b506040820151816002019080519060200190610ccf9291906110be565b5050505060006001600080549050039050600186604051610cf09190611720565b9081526020016040518091039020819080600181540180825580915050906001820390600052602060002001600090919290919091505550505050505050565b610d3861109d565b610d4f826000015183602001518460400151610d56565b9050919050565b610d5e61109d565b60405180606001604052808581526020018481526020018381525090509392505050565b6000610d99610d9387878787610dcf565b83610ef4565b905095945050505050565b60006060610db183610fbe565b90506000818051906020012090508060005260005192505050919050565b600080600186604051610de29190611720565b9081526020016040518091039020805490501415610e74576002858585604051602001610e1193929190611737565b604051602081830303815290604052604051610e2d91906116f2565b602060405180830381855afa158015610e4a573d6000803e3d6000fd5b5050506040513d601f19601f82011682018060405250610e6d9190810190611235565b9050610eec565b600285858585604051602001610e8d9493929190611768565b604051602081830303815290604052604051610ea991906116f2565b602060405180830381855afa158015610ec6573d6000803e3d6000fd5b5050506040513d601f19601f82011682018060405250610ee99190810190611235565b90505b949350505050565b6000806000806041855114610f0f5760009350505050610fb8565b6020850151925060408501519150606085015160001a9050601b8160ff161015610f3a57601b810190505b601b8160ff1614158015610f525750601c8160ff1614155b15610f635760009350505050610fb8565b60018682858560405160008152602001604052604051610f8694939291906117c8565b6020604051602081039080840390855afa158015610fa8573d6000803e3d6000fd5b5050506020604051035193505050505b92915050565b606060008060218401519150604184015190508181604051602001610fe49291906116c6565b60405160208183030381529060405292505050919050565b60405180606001604052806060815260200160608152602001606081525090565b828054600181600116156101000203166002900490600052602060002090601f016020900481019282601f1061105e57805160ff191683800117855561108c565b8280016001018555821561108c579182015b8281111561108b578251825591602001919060010190611070565b5b509050611099919061113e565b5090565b60405180606001604052806060815260200160608152602001606081525090565b828054600181600116156101000203166002900490600052602060002090601f016020900481019282601f106110ff57805160ff191683800117855561112d565b8280016001018555821561112d579182015b8281111561112c578251825591602001919060010190611111565b5b50905061113a919061113e565b5090565b61116091905b8082111561115c576000816000905550600101611144565b5090565b90565b600081359050611172816119f4565b92915050565b600081519050611187816119f4565b92915050565b600082601f83011261119e57600080fd5b81356111b16111ac82611877565b61184a565b915080825260208301602083018583830111156111cd57600080fd5b6111d8838284611997565b50505092915050565b600082601f8301126111f257600080fd5b8135611205611200826118a3565b61184a565b9150808252602083016020830185838301111561122157600080fd5b61122c838284611997565b50505092915050565b60006020828403121561124757600080fd5b600061125584828501611178565b91505092915050565b60006020828403121561127057600080fd5b600082013567ffffffffffffffff81111561128a57600080fd5b611296848285016111e1565b91505092915050565b600080600080600080600060e0888a0312156112ba57600080fd5b600088013567ffffffffffffffff8111156112d457600080fd5b6112e08a828b016111e1565b97505060206112f18a828b01611163565b965050604088013567ffffffffffffffff81111561130e57600080fd5b61131a8a828b016111e1565b955050606088013567ffffffffffffffff81111561133757600080fd5b6113438a828b016111e1565b945050608088013567ffffffffffffffff81111561136057600080fd5b61136c8a828b016111e1565b93505060a088013567ffffffffffffffff81111561138957600080fd5b6113958a828b0161118d565b92505060c088013567ffffffffffffffff8111156113b257600080fd5b6113be8a828b0161118d565b91505092959891949750929550565b600080604083850312156113e057600080fd5b600083013567ffffffffffffffff8111156113fa57600080fd5b611406858286016111e1565b925050602083013567ffffffffffffffff81111561142357600080fd5b61142f858286016111e1565b9150509250929050565b60006114458383611659565b905092915050565b6000611458826118f4565b611462818561192d565b935083602082028501611474856118cf565b8060005b858110156114b057848403895281516114918582611439565b945061149c83611920565b925060208a01995050600181019050611478565b50829750879550505050505092915050565b6114cb81611976565b82525050565b6114e26114dd82611976565b6119d9565b82525050565b60006114f3826118ff565b6114fd818561193e565b935061150d8185602086016119a6565b80840191505092915050565b600081546001811660008114611536576001811461155b5761159f565b607f6002830416611547818761193e565b955060ff198316865280860193505061159f565b60028204611569818761193e565b9550611574856118df565b60005b8281101561159657815481890152600182019150602081019050611577565b82880195505050505b505092915050565b6115b081611980565b82525050565b60006115c182611915565b6115cb818561195a565b93506115db8185602086016119a6565b6115e4816119e3565b840191505092915050565b60006115fa82611915565b611604818561196b565b93506116148185602086016119a6565b80840191505092915050565b600061162b8261190a565b6116358185611949565b93506116458185602086016119a6565b61164e816119e3565b840191505092915050565b600060608301600083015184820360008601526116768282611620565b915050602083015184820360208601526116908282611620565b915050604083015184820360408601526116aa8282611620565b9150508091505092915050565b6116c08161198a565b82525050565b60006116d282856114d1565b6020820191506116e282846114d1565b6020820191508190509392505050565b60006116fe82846114e8565b915081905092915050565b60006117158284611519565b915081905092915050565b600061172c82846115ef565b915081905092915050565b600061174382866115ef565b915061174f82856115ef565b915061175b82846115ef565b9150819050949350505050565b600061177482876115ef565b915061178082866115ef565b915061178c82856115ef565b915061179882846115ef565b915081905095945050505050565b600060208201905081810360008301526117c0818461144d565b905092915050565b60006080820190506117dd60008301876114c2565b6117ea60208301866116b7565b6117f760408301856114c2565b61180460608301846114c2565b95945050505050565b600060208201905061182260008301846115a7565b92915050565b6000602082019050818103600083015261184281846115b6565b905092915050565b6000604051905081810181811067ffffffffffffffff8211171561186d57600080fd5b8060405250919050565b600067ffffffffffffffff82111561188e57600080fd5b601f19601f8301169050602081019050919050565b600067ffffffffffffffff8211156118ba57600080fd5b601f19601f8301169050602081019050919050565b6000819050602082019050919050565b60008190508160005260206000209050919050565b600081519050919050565b600081519050919050565b600081519050919050565b600081519050919050565b6000602082019050919050565b600082825260208201905092915050565b600081905092915050565b600082825260208201905092915050565b600082825260208201905092915050565b600081905092915050565b6000819050919050565b6000819050919050565b600060ff82169050919050565b82818337600083830152505050565b60005b838110156119c45780820151818401526020810190506119a9565b838111156119d3576000848401525b50505050565b6000819050919050565b6000601f19601f8301169050919050565b6119fd81611976565b8114611a0857600080fd5b5056fea365627a7a72315820ed5d23f3cce816ddcd753dab118a6d180aa6474d4ec509498e9aee80f82ff43a6c6578706572696d656e74616cf564736f6c63430005100040",
  "source": "// SPDX-License-Identifier: MIT\r\npragma solidity >= 0.5 <= 0.7;\r\npragma experimental ABIEncoderV2;\r\n\r\ncontract anchoringSC {\r\n\r\n    // error codes\r\n    uint constant statusOK = 200;\r\n    uint constant statusAddedConstSSIOK = 201;\r\n    uint constant statusHashLinkOutOfSync = 100;\r\n    uint constant statusCannotUpdateReadOnlyAnchor = 101;\r\n    uint constant statusHashOfPublicKeyDoesntMatchControlString = 102;\r\n    uint constant statusSignatureCheckFailed = 103;\r\n\r\n    event InvokeStatus(uint indexed statusCode);\r\n\r\n    struct AnchorValue {\r\n        string newHashLinkSSI;\r\n        string lastHashLinkSSI;\r\n        string ZKPValue;\r\n    }\r\n\r\n    // store all anchors\r\n    AnchorValue[] anchorStorage;\r\n    //keep a mapping between anchor(keySSI) and it's versions\r\n    mapping (string => uint[]) anchorVersions;\r\n\r\n    //mapping between anchorID and controlString.\r\n    mapping (string => bytes32) anchorControlStrings;\r\n\r\n    //mapping for read only anchors\r\n    mapping (string => bool) readOnlyAnchorVersions;\r\n\r\n    mapping(string => string) stuffAdded;\r\n    constructor() public {\r\n\r\n    }\r\n\r\n    function addStuff(string memory key, string memory value) public {\r\n        stuffAdded[key] = value;\r\n    }\r\n\r\n    function getStuff(string memory key) public view returns(string memory) {\r\n        return stuffAdded[key];\r\n    }\r\n\r\n    // public function\r\n    function addAnchor(string memory anchorID, bytes32 controlString,\r\n        string memory newHashLinkSSI, string memory ZKPValue, string memory lastHashLinkSSI,\r\n        bytes memory signature, bytes memory publicKey) public {\r\n\r\n        //check if thew anchorID can accept updates\r\n        if (isAnchorReadOnly(anchorID))\r\n        {\r\n            //anchor is readonly, reject updates\r\n            emit InvokeStatus(statusCannotUpdateReadOnlyAnchor);\r\n            return;\r\n        }\r\n\r\n        int validateAnchorContinuityResult = validateAnchorContinuity(anchorID, lastHashLinkSSI, newHashLinkSSI);\r\n        if (validateAnchorContinuityResult == 0)\r\n        {\r\n            //hash link are out of sync\r\n            emit InvokeStatus(statusHashLinkOutOfSync);\r\n            return;\r\n        }\r\n\r\n        if (validateAnchorContinuityResult == -1)\r\n        {\r\n            //anchor is new and we must check controlString\r\n            if (isEmptyBytes32(controlString))\r\n            {\r\n                //allow only one record of this anchorID\r\n                //this anchorID will not accept updates in the future\r\n                createReadOnlyNewAnchorValueOnAddAnchor(anchorID, newHashLinkSSI,ZKPValue,lastHashLinkSSI);\r\n                //all done, invoke ok status\r\n                emit InvokeStatus(statusAddedConstSSIOK);\r\n                return;\r\n            }\r\n            // add controlString to the mapping\r\n            anchorControlStrings[anchorID] = controlString;\r\n        }\r\n\r\n        //validate hash of the publicKey\r\n        if (!validatePublicKey(publicKey,anchorID))\r\n        {\r\n            emit InvokeStatus(statusHashOfPublicKeyDoesntMatchControlString);\r\n            return;\r\n        }\r\n\r\n        //validate signature\r\n        if (!validateSignature(anchorID, newHashLinkSSI,ZKPValue,lastHashLinkSSI, signature,publicKey))\r\n        {\r\n            emit InvokeStatus(statusSignatureCheckFailed);\r\n            return;\r\n        }\r\n\r\n        createNewAnchorValueOnAddAnchor(anchorID, newHashLinkSSI,ZKPValue,lastHashLinkSSI);\r\n        //all done, invoke ok status\r\n        emit InvokeStatus(statusOK);\r\n    }\r\n\r\n    function createNewAnchorValueOnAddAnchor(string memory anchorID, string memory newHashLinkSSI,\r\n        string memory ZKPValue, string memory lastHashLinkSSI) private\r\n    {\r\n        //create new anchor value\r\n        AnchorValue memory anchorValue = buildAnchorValue(newHashLinkSSI,lastHashLinkSSI,ZKPValue);\r\n        anchorStorage.push(anchorValue);\r\n        uint versionIndex = anchorStorage.length - 1;\r\n        //update number of versions available for that anchor\r\n        anchorVersions[anchorID].push(versionIndex);\r\n\r\n    }\r\n\r\n    function createReadOnlyNewAnchorValueOnAddAnchor(string memory anchorID, string memory newHashLinkSSI,\r\n        string memory ZKPValue, string memory lastHashLinkSSI) private\r\n    {\r\n        //for readonly anchor store the values in the same place as normal anchors\r\n        //getVersions will provide information the same way, regardless of the anchorID type\r\n\r\n        //create new anchor value\r\n        AnchorValue memory anchorValue = buildAnchorValue(newHashLinkSSI,lastHashLinkSSI,ZKPValue);\r\n        anchorStorage.push(anchorValue);\r\n        uint versionIndex = anchorStorage.length - 1;\r\n        //update number of versions available for that anchor\r\n        anchorVersions[anchorID].push(versionIndex);\r\n        // mark the anchorID as read only\r\n        readOnlyAnchorVersions[anchorID] = true;\r\n    }\r\n\r\n    function validatePublicKey(bytes memory publicKey,string memory anchorID) private view returns (bool){\r\n        return (sha256(publicKey) == anchorControlStrings[anchorID]);\r\n    }\r\n\r\n    function validateSignature(string memory anchorID,string memory newHashLinkSSI,string memory ZKPValue,\r\n        string memory lastHashLinkSSI, bytes memory signature, bytes memory publicKey) private view returns (bool)\r\n    {\r\n        return calculateAddress(publicKey) == getAddressFromHashAndSig(anchorID, newHashLinkSSI, ZKPValue, lastHashLinkSSI, signature);\r\n    }\r\n\r\n    // calculate the ethereum like address starting from the public key\r\n    function calculateAddress(bytes memory pub) private pure returns (address addr) {\r\n        // address is 65 bytes\r\n        // lose the first byte 0x04, use only the 64 bytes\r\n        // sha256 (64 bytes)\r\n        // get the 20 bytes\r\n        bytes memory pubk = get64(pub);\r\n\r\n        bytes32 hash = keccak256(pubk);\r\n        assembly {\r\n            mstore(0, hash)\r\n            addr := mload(0)\r\n        }\r\n    }\r\n\r\n    function get64(bytes memory pub) private pure returns (bytes memory)\r\n    {\r\n        //format 0x04bytes32bytes32\r\n        bytes32 first32;\r\n        bytes32 second32;\r\n        assembly {\r\n        //intentional 0x04bytes32 -> bytes32. We drop 0x04\r\n            first32 := mload(add(pub, 33))\r\n            second32 := mload(add(pub, 65))\r\n        }\r\n\r\n        return abi.encodePacked(first32,second32);\r\n    }\r\n\r\n    function getAddressFromHashAndSig(string memory anchorID,string memory newHashLinkSSI,string memory ZKPValue,\r\n        string memory lastHashLinkSSI, bytes memory signature) private view returns (address)\r\n    {\r\n        //return the public key derivation\r\n        return recover(getHashToBeChecked(anchorID,newHashLinkSSI,ZKPValue,lastHashLinkSSI), signature);\r\n    }\r\n\r\n    function recover(bytes32 hash, bytes memory signature) private pure returns (address)\r\n    {\r\n        bytes32 r;\r\n        bytes32 s;\r\n        uint8 v;\r\n\r\n        // Check the signature length\r\n        if (signature.length != 65) {\r\n            return (address(0));\r\n        }\r\n\r\n        // Divide the signature in r, s and v variables\r\n        // ecrecover takes the signature parameters, and the only way to get them\r\n        // currently is to use assembly.\r\n        // solium-disable-next-line security/no-inline-assembly\r\n        assembly {\r\n            r := mload(add(signature, 32))\r\n            s := mload(add(signature, 64))\r\n            v := byte(0, mload(add(signature, 96)))\r\n        }\r\n\r\n        // Version of signature should be 27 or 28, but 0 and 1 are also possible versions\r\n        if (v < 27) {\r\n            v += 27;\r\n        }\r\n\r\n        // If the version is correct return the signer address\r\n        if (v != 27 && v != 28) {\r\n            return (address(0));\r\n        } else {\r\n            // solium-disable-next-line arg-overflow\r\n            return ecrecover(hash, v, r, s);\r\n        }\r\n    }\r\n\r\n    function getHashToBeChecked(string memory anchorID,string memory newHashLinkSSI,string memory ZKPValue,\r\n        string memory lastHashLinkSSI) private view returns (bytes32)\r\n    {\r\n        //use abi.encodePacked to not pad the inputs\r\n        if (anchorVersions[anchorID].length == 0)\r\n        {\r\n            return sha256(abi.encodePacked(anchorID,newHashLinkSSI,ZKPValue));\r\n        }\r\n        return sha256(abi.encodePacked(anchorID,newHashLinkSSI,ZKPValue,lastHashLinkSSI));\r\n    }\r\n\r\n    // Used in addAnchor\r\n    function isAnchorReadOnly(string memory anchorID) private view returns(bool)\r\n    {\r\n        return readOnlyAnchorVersions[anchorID];\r\n    }\r\n\r\n    // Used in addAnchor\r\n    function validateAnchorContinuity(string memory anchorID, string memory lastHashLinkSSI, string memory newHashLinkSSI) private view returns (int)\r\n    {\r\n        if (anchorVersions[anchorID].length == 0)\r\n        {\r\n            //first anchor to be added\r\n            return -1;\r\n        }\r\n        uint index = anchorVersions[anchorID][anchorVersions[anchorID].length-1];\r\n\r\n        //can import StringUtils contract or compare hashes\r\n        //hash compare seems faster\r\n        if (sha256(bytes(anchorStorage[index].newHashLinkSSI)) == sha256(bytes(lastHashLinkSSI)))\r\n        {\r\n            //ensure we dont get double hashLinkSSI\r\n            if (sha256(bytes(newHashLinkSSI)) == sha256(bytes(lastHashLinkSSI)))\r\n            {\r\n                //raise out of sync. the hashlinks should be different, except 1st anchor\r\n                return 0;\r\n            }\r\n            //last hash link from contract is a match with the one passed\r\n            return 1;\r\n        }\r\n        //hash link is out of sync. the last hash link stored doesnt match with the last hash link passed\r\n        return 0;\r\n    }\r\n\r\n    function buildAnchorValue(string memory newHashLinkSSI, string memory lastHashLinkSSI, string memory ZKPValue) private pure returns (AnchorValue memory){\r\n        return AnchorValue(newHashLinkSSI, lastHashLinkSSI, ZKPValue);\r\n    }\r\n\r\n    function copyAnchorValue(AnchorValue memory anchorValue) private pure returns (AnchorValue memory){\r\n        return buildAnchorValue(anchorValue.newHashLinkSSI, anchorValue.lastHashLinkSSI, anchorValue.ZKPValue);\r\n    }\r\n\r\n    // public function\r\n    function getAnchorVersions(string memory anchor) public view returns (AnchorValue[] memory) {\r\n        if (anchorVersions[anchor].length == 0)\r\n        {\r\n            return new AnchorValue[](0);\r\n        }\r\n        uint[] memory indexList = anchorVersions[anchor];\r\n        AnchorValue[] memory result = new AnchorValue[] (indexList.length);\r\n        for (uint i=0;i<indexList.length;i++){\r\n            result[i] = copyAnchorValue(anchorStorage[indexList[i]]);\r\n        }\r\n\r\n        return result;\r\n\r\n    }\r\n\r\n    function check() public view returns (int){\r\n        return 5;\r\n    }\r\n\r\n    //utility functions\r\n    function isEmptyBytes32(bytes32 data) private pure returns (bool)\r\n    {\r\n        return data[0] == 0;\r\n    }\r\n\r\n}\r\n",
  "sourcePath": "D:/Pharma/blockchain2-demo/quorum_network/multi-cluster-example/sc/contracts/anchoringSC.sol",
  "compiler": {
    "name": "solc",
    "version": "0.5.16+commit.9c3226ce.Emscripten.clang"
  },
  "schemaVersion": "3.2.5",
  "updatedAt": "2021-08-11T08:46:49.528Z",
  "networkType": "quorum",
  "devdoc": {
    "methods": {}
  },
  "userdoc": {
    "methods": {}
  }
}